{
  "contractName": "Greeter",
  "abi": [
    {
      "inputs": [],
      "stateMutability": "nonpayable",
      "type": "constructor"
    },
    {
      "inputs": [],
      "name": "greet",
      "outputs": [
        {
          "internalType": "string",
          "name": "",
          "type": "string"
        }
      ],
      "stateMutability": "view",
      "type": "function"
    },
    {
      "inputs": [
        {
          "internalType": "string",
          "name": "greeting",
          "type": "string"
        }
      ],
      "name": "setGreeting",
      "outputs": [],
      "stateMutability": "nonpayable",
      "type": "function"
    },
    {
      "inputs": [],
      "name": "owner",
      "outputs": [
        {
          "internalType": "address",
          "name": "",
          "type": "address"
        }
      ],
      "stateMutability": "view",
      "type": "function"
    }
  ],
  "bytecode": "0x60806040526040518060400160405280600d81526020017f48656c6c6f2c20576f726c6421000000000000000000000000000000000000008152505f908162000049919062000301565b5034801562000056575f80fd5b503360015f6101000a81548173ffffffffffffffffffffffffffffffffffffffff021916908373ffffffffffffffffffffffffffffffffffffffff160217905550620003e5565b5f81519050919050565b7f4e487b71000000000000000000000000000000000000000000000000000000005f52604160045260245ffd5b7f4e487b71000000000000000000000000000000000000000000000000000000005f52602260045260245ffd5b5f60028204905060018216806200011957607f821691505b6020821081036200012f576200012e620000d4565b5b50919050565b5f819050815f5260205f209050919050565b5f6020601f8301049050919050565b5f82821b905092915050565b5f60088302620001937fffffffffffffffffffffffffffffffffffffffffffffffffffffffffffffffff8262000156565b6200019f868362000156565b95508019841693508086168417925050509392505050565b5f819050919050565b5f819050919050565b5f620001e9620001e3620001dd84620001b7565b620001c0565b620001b7565b9050919050565b5f819050919050565b6200020483620001c9565b6200021c6200021382620001f0565b84845462000162565b825550505050565b5f90565b6200023262000224565b6200023f818484620001f9565b505050565b5b8181101562000266576200025a5f8262000228565b60018101905062000245565b5050565b601f821115620002b5576200027f8162000135565b6200028a8462000147565b810160208510156200029a578190505b620002b2620002a98562000147565b83018262000244565b50505b505050565b5f82821c905092915050565b5f620002d75f1984600802620002ba565b1980831691505092915050565b5f620002f18383620002c6565b9150826002028217905092915050565b6200030c826200009d565b67ffffffffffffffff811115620003285762000327620000a7565b5b62000334825462000101565b620003418282856200026a565b5f60209050601f83116001811462000377575f841562000362578287015190505b6200036e8582620002e4565b865550620003dd565b601f198416620003878662000135565b5f5b82811015620003b05784890151825560018201915060208501945060208101905062000389565b86831015620003d05784890151620003cc601f891682620002c6565b8355505b6001600288020188555050505b505050505050565b61075180620003f35f395ff3fe608060405234801561000f575f80fd5b506004361061003f575f3560e01c80638da5cb5b14610043578063a413686214610061578063cfae32171461007d575b5f80fd5b61004b61009b565b6040516100589190610235565b60405180910390f35b61007b600480360381019061007691906102b7565b6100c3565b005b610085610167565b604051610092919061038c565b60405180910390f35b5f60015f9054906101000a900473ffffffffffffffffffffffffffffffffffffffff16905090565b60015f9054906101000a900473ffffffffffffffffffffffffffffffffffffffff1673ffffffffffffffffffffffffffffffffffffffff163373ffffffffffffffffffffffffffffffffffffffff1614610152576040517f08c379a0000000000000000000000000000000000000000000000000000000008152600401610149906103f6565b60405180910390fd5b81815f918261016292919061064e565b505050565b60605f805461017590610478565b80601f01602080910402602001604051908101604052809291908181526020018280546101a190610478565b80156101ec5780601f106101c3576101008083540402835291602001916101ec565b820191905f5260205f20905b8154815290600101906020018083116101cf57829003601f168201915b5050505050905090565b5f73ffffffffffffffffffffffffffffffffffffffff82169050919050565b5f61021f826101f6565b9050919050565b61022f81610215565b82525050565b5f6020820190506102485f830184610226565b92915050565b5f80fd5b5f80fd5b5f80fd5b5f80fd5b5f80fd5b5f8083601f84011261027757610276610256565b5b8235905067ffffffffffffffff8111156102945761029361025a565b5b6020830191508360018202830111156102b0576102af61025e565b5b9250929050565b5f80602083850312156102cd576102cc61024e565b5b5f83013567ffffffffffffffff8111156102ea576102e9610252565b5b6102f685828601610262565b92509250509250929050565b5f81519050919050565b5f82825260208201905092915050565b5f5b8381101561033957808201518184015260208101905061031e565b5f8484015250505050565b5f601f19601f8301169050919050565b5f61035e82610302565b610368818561030c565b935061037881856020860161031c565b61038181610344565b840191505092915050565b5f6020820190508181035f8301526103a48184610354565b905092915050565b7f4f776e61626c653a2063616c6c6572206973206e6f7420746865206f776e65725f82015250565b5f6103e060208361030c565b91506103eb826103ac565b602082019050919050565b5f6020820190508181035f83015261040d816103d4565b9050919050565b5f82905092915050565b7f4e487b71000000000000000000000000000000000000000000000000000000005f52604160045260245ffd5b7f4e487b71000000000000000000000000000000000000000000000000000000005f52602260045260245ffd5b5f600282049050600182168061048f57607f821691505b6020821081036104a2576104a161044b565b5b50919050565b5f819050815f5260205f209050919050565b5f6020601f8301049050919050565b5f82821b905092915050565b5f600883026105047fffffffffffffffffffffffffffffffffffffffffffffffffffffffffffffffff826104c9565b61050e86836104c9565b95508019841693508086168417925050509392505050565b5f819050919050565b5f819050919050565b5f61055261054d61054884610526565b61052f565b610526565b9050919050565b5f819050919050565b61056b83610538565b61057f61057782610559565b8484546104d5565b825550505050565b5f90565b610593610587565b61059e818484610562565b505050565b5b818110156105c1576105b65f8261058b565b6001810190506105a4565b5050565b601f821115610606576105d7816104a8565b6105e0846104ba565b810160208510156105ef578190505b6106036105fb856104ba565b8301826105a3565b50505b505050565b5f82821c905092915050565b5f6106265f198460080261060b565b1980831691505092915050565b5f61063e8383610617565b9150826002028217905092915050565b6106588383610414565b67ffffffffffffffff8111156106715761067061041e565b5b61067b8254610478565b6106868282856105c5565b5f601f8311600181146106b3575f84156106a1578287013590505b6106ab8582610633565b865550610712565b601f1984166106c1866104a8565b5f5b828110156106e8578489013582556001820191506020850194506020810190506106c3565b868310156107055784890135610701601f891682610617565b8355505b6001600288020188555050505b5050505050505056fea2646970667358221220285b2b7b2b91bf8f42dc723a6016ad657d46c6ba1eec1352bac58c711d7809fc64736f6c63430008150033",
  "immutableReferences": {},
  "source": "// SPDX-License-Identifier: GPL-3.0\r\n\r\npragma solidity >=0.8.2 <0.9.0;\r\n\r\ncontract Greeter {\r\n    string private _greeting = \"Hello, World!\";\r\n    address private _owner;\r\n    constructor() public {\r\n        _owner = msg.sender;\r\n    }\r\n    function greet() external view returns (string memory) {\r\n        return _greeting;\r\n    }\r\n    function setGreeting(string calldata greeting) external onlyOwner {\r\n        _greeting = greeting;\r\n    }\r\n    function owner() public view returns (address) {\r\n        return _owner;\r\n    }\r\n    modifier onlyOwner() {\r\n        require(msg.sender == _owner, \"Ownable: caller is not the owner\");\r\n        _;\r\n    }\r\n}\r\n",
  "sourcePath": "G:\\greeter\\contracts\\Greeter.sol",
  "compiler": {
    "name": "solc",
    "version": "0.8.21+commit.d9974bed.Emscripten.clang"
  },
  "schemaVersion": "3.4.16",
  "updatedAt": "2024-10-19T19:43:44.868Z",
  "devdoc": {
    "kind": "dev",
    "methods": {},
    "version": 1
  },
  "userdoc": {
    "kind": "user",
    "methods": {},
    "version": 1
  }
}